:100000000C9434000C943E000C943E000C943E0082
:100010000C943E000C943E000C943E000C943E0068
:100020000C943E000C943E000C943E000C943E0058
:100030000C943E000C943E000C943E000C943E0048
:100040000C943E000C943E000C943E000C943E0038
:100050000C943E000C943E000C943E000C943E0028
:100060000C943E000C943E0011241FBECFEFD8E04C
:10007000DEBFCDBF0E941C010C9428010C9400002F
:10008000509A519A3A9A539A549855985698579824
:100090005C9A5D9A5E9A5F9A589A599A5A9A5B9AB4
:1000A0000895F0E0589A599A5A9A5B9AF13049F0BB
:1000B000F13028F0F23039F0F33041F406C05898AE
:1000C00005C0599803C05A9801C05B9889B1E9B13D
:1000D00099B129B1E0728071E82B9074E92B2078F6
:1000E000E22B29B149B169B189B1881F8827881FDE
:1000F00090E030E054E0369527955A95E1F72823B3
:10010000392350E0B5E056954795BA95E1F742237B
:10011000532370E0A6E076956795AA95E1F76423EE
:1001200075236130710521F129B149B169B189B1F6
:10013000881F8827881F90E030E054E03695279587
:100140005A95E1F72823392350E095E056954795D5
:100150009A95E1F74223532370E086E07695679500
:100160008A95E1F76423752361307105E9F605C0CE
:10017000FF5FF43009F096CF5DC0F43009F45AC047
:10018000F130E1F0F13030F0F23061F1F33009F0AC
:1001900051C03CC0E03B51F0E13B18F4E03771F452
:1001A00007C0E03D39F0E03E49F406C089E3089518
:1001B0008FE2089588E3089587E30895E03B51F0C6
:1001C000E13B18F4E03771F407C0E03D39F0E03E60
:1001D00049F406C086E308958AE2089585E3089508
:1001E00084E30895E03B51F0E13B18F4E03771F40B
:1001F00007C0E03D39F0E03E49F406C083E30895CE
:100200008DE2089582E3089581E30895E03B51F083
:10021000E13B18F4E03771F407C0E03D39F0E03E0F
:1002200049F406C08DE308958BE2089580E30895B4
:1002300083E4089580E008958FEF87B918B80E948D
:1002400040000E9451008823E1F3805388B9F9CF20
:04025000F894FFCF50
:00000001FF
